:100000000C9435000C945D000C945D000C945D0024
:100010000C945D000C945D000C945D000C945D00EC
:100020000C945D000C945D000C945D000C945D00DC
:100030000C945D000C945D000C945D000C945D00CC
:100040000C945D000C945D000C9473000C945D00A6
:100050000C945D000C945D000C945D000C945D00AC
:100060000C945D000C945D009D0011241FBECFEF29
:10007000D8E0DEBFCDBF11E0A0E0B1E0E4E7F1E001
:1000800002C005900D92A030B107D9F721E0A0E0A1
:10009000B1E001C01D92A331B207E1F710E0C5E362
:1000A000D0E004C02197FE010E94B200C433D10702
:1000B000C9F70E945F000C94B8000C940000259AC8
:1000C00080E090E02D9A20E4FC013197F1F72A9529
:1000D0002030D1F72D9820E4FC013197F1F72A95D3
:1000E0002030D1F7EFCF0F920FB60F921F9211244D
:1000F0002F933F934F935F936F937F938F939F9330
:10010000AF93BF93EF93FF93E0911101F091120130
:10011000E030F10509F00995FF91EF91BF91AF91A2
:100120009F918F917F916F915F914F913F912F910F
:100130001F900F900FBE0F901895E0E0F1E0108235
:1001400011821282138214821582168217821086FF
:10015000118612861386148615861686178681E008
:10016000808B0895EE0FFF1F0590F491E02D099408
:04017000F894FFCF31
:00000001FF
