:100000000C9444000C946C000C946C000C946C00E8
:100010000C946C000C946C000C946C000C946C00B0
:100020000C946C000C946C000C946C000C946C00A0
:100030000C946C000C946C000C946C000C946C0090
:100040000C946C000C946C000C94A5030C946C0044
:100050000C946C000C946C000C946C000C946C0070
:100060000C946C000C946C00446174615265676977
:10007000737465723A20006164636C3A20006164B5
:1000800063683A200000E20311241FBECFEFD8E0DE
:10009000DEBFCDBF11E0A0E0B1E0E0E7FAE002C0D2
:1000A00005900D92A630B107D9F721E0A6E0B1E0A6
:1000B00001C01D92A732B207E1F710E0C4E4D0E01E
:1000C00004C02197FE010E940B04C334D107C9F775
:1000D0000E946E000C9436050C9400002F923F9203
:1000E0004F925F926F927F928F929F92AF92BF9248
:1000F000DF92EF92FF920F931F933D98239A539AAA
:100100008091C200897C86608093C2008091C1008A
:1001100084608093C1008091C200877F8093C20079
:100120001092C50080E18093C4008091C10088696D
:100130008093C10080917C008F73806480937C00E9
:1001400080917A00876880937A0000E010E0C8010F
:100150009801A801B80103C0E170E030B9F0F801DE
:100160003197F1F78F5F9F4F2F4F3F4F4F4F5F4FAB
:100170006F4F7F4FE1E08034910520073107400742
:1001800051076007710741F7E12DE6CF1093190180
:100190000093180188E690E04C0187E790E03C016D
:1001A0008EE790E02C0180917C00807F85608093B9
:1001B0007C0080917A00806480937A00809178003E
:1001C000E82EFF2480917900A82EBB24C501982F2A
:1001D00088278E299F299093190180931801F8018F
:1001E000C40180309105980109F09401C9018E0F76
:1001F0009F1F2030310509F09C011F01492F442326
:100200000AF0C9010E94DF03D82E0E94810281708A
:100210008030D9F3D092C600F1013196EE30F1056D
:10022000F9F680911801909119010E9488020E94AC
:10023000810281708030D9F38AE08093C600C301C7
:1002400080309105C80109F0C3010E94DF03D82E58
:100250000E94810281708030D9F3D092C600C30120
:1002600080309105980109F09301C9010196203071
:10027000310509F09C01492F44230AF0C9010E946D
:10028000DF03D82E0E94810281708030D9F3D09292
:10029000C600C30180309105980109F09301C9019E
:1002A00002962030310509F09C01492F44230AF0C1
:1002B000C9010E94DF03D82E0E9481028170803024
:1002C000D9F3D092C600C30180309105980109F09E
:1002D0009301C90103962030310509F09C01492F93
:1002E00044230AF0C9010E94DF03D82E0E94810234
:1002F00081708030D9F3D092C600C301803091055F
:10030000980109F09301C90104962030310509F0E4
:100310009C01492F44230AF0C9010E94DF03D82E13
:100320000E94810281708030D9F3D092C600C3014F
:1003300080309105980109F09301C901059620309C
:10034000310509F09C01492F44230AF0C9010E949C
:10035000DF03D82E0E94810281708030D9F3D092C1
:10036000C600C7010E9488020E948102817080300D
:10037000D9F38AE08093C600C20180309105C8019C
:1003800009F0C2010E94DF03F82E0E9481028170F1
:100390008030D9F3F092C600C201803091059801F7
:1003A00009F09201C90101962030310509F09C0144
:1003B000492F44230AF0C9010E94DF03F82E0E944E
:1003C000810281708030D9F3F092C600C201803082
:1003D0009105980109F09201C9010296203031057A
:1003E00009F09C01492F44230AF0C9010E94DF0350
:1003F000F82E0E94810281708030D9F3F092C600FD
:10040000C20180309105980109F09201C90103965B
:100410002030310509F09C01492F44230AF0C9011D
:100420000E94DF03F82E0E94810281708030D9F390
:10043000F092C600C20180309105980109F0920146
:10044000C90104962030310509F09C01492F44234D
:100450000AF0C9010E94DF03F82E0E948102817018
:100460008030D9F3F092C600C20180309105980126
:1004700009F09201C90105962030310509F09C016F
:10048000492F44230AF0C9010E94DF03F82E0E947D
:10049000810281708030D9F3F092C600C5010E94BC
:1004A00088020E94810281708030D9F38AE08093B3
:1004B000C6000E94810281708030D9F38AE0809367
:1004C000C600C8019801A801B80104C0E170E0307D
:1004D00009F069CEF8013197F1F78F5F9F4F2F4FE9
:1004E0003F4F4F4F5F4F6F4F7F4FE1E0803491059B
:1004F00020073107400751076007710739F3E12DE5
:10050000E5CF8091C000807282958F7086950895A6
:100510008F929F92AF92BF92CF92DF92EF92FF9213
:100520000F931F936C018AE191E064E873E00E94ED
:10053000CF0380912001803009F0DBC080911C0145
:1005400090911D01FC013596B12C80307C019B05FA
:1005500029F0CF012F2F222332F406C080E090E053
:100560002F2F22230AF0FC016AE070E08601C80107
:100570004F010E94F7038AE07802902D1124689FB2
:10058000212D1124290F322F2227C001822B932BDA
:100590009801281B390B2063D4012C930A301B05CA
:1005A00010F415E08AC0C701FC013496112D80308B
:1005B000910729F0CF012F2F222332F406C080E0CB
:1005C00090E02F2F22230AF0FC012AE030E0CB013B
:1005D000B9015F010E94F7038063D5018C93C601C6
:1005E0008436910710F414E068C0C701FC0133960B
:1005F0008030910529F0CF012F2F222332F406C03D
:1006000080E090E02F2F22230AF0FC0164E670E0E6
:10061000C6015C018F010E94F7032AE030E0CB01A4
:10062000B9010E94F7038063D8018C9313E0C501E0
:10063000883E910708F441C0C701FC013296803022
:10064000910511F0CF0102C080E090E02F2F22230E
:100650000AF0FC0168EE73E08601C8015F010E94A8
:10066000F7038DEC689F812D1124869586958695DC
:100670009AE08902112460196063D5016C9387E2C6
:100680000031180710F412E018C0C701FC013196C0
:100690008030910511F0CF0102C080E090E02F2F53
:1006A00022230AF0FC0160E177E2C6018F010E947B
:1006B000F7036063D8016C9311E080E090E06C0177
:1006C000A12FBB27C701A80FB91F80309105C60114
:1006D00009F0CD012B2F22230AF0DC010C910E949E
:1006E000810281708030D9F30093C60013951630D3
:1006F00039F71F910F91FF90EF90DF90CF90BF904F
:10070000AF909F908F9008950F931F9306E010E095
:100710006FEF7FEFC8010E94DD0390931D0180936E
:100720001C018030910511F400E010E010931F01CE
:1007300000931E0121E08030910509F0212D2170E8
:10074000209320011F910F9108950F920FB60F92E1
:100750001F9211242F933F934F935F936F937F9337
:100760008F939F93AF93BF93EF93FF93E0912101FA
:10077000F0912201E030F10509F00995FF91EF9128
:10078000BF91AF919F918F917F916F915F914F91A9
:100790003F912F911F900F900FBE0F901895DC0185
:1007A000FB01CA012D913C911197232B29F42FEFC6
:1007B0003FEF2D933C93099408950C941104FC0190
:1007C00084910895E6E0F1E0108211821282138292
:1007D000148215821682178210861186128613865D
:1007E000148615861686178681E0808B0895AA1BCD
:1007F000BB1B51E107C0AA1FBB1FA617B70710F00C
:10080000A61BB70B881F991F5A95A9F7809590953D
:10081000BC01CD010895EE0FFF1F0590F491E02D6E
:1008200009940F931F93CF93DF938230910510F4B7
:1008300082E090E0E0912301F091240130E020E09B
:10084000B0E0A0E0309799F42115310509F44AC0D1
:10085000281B390B24303105D8F58A819B8161151D
:10086000710589F1FB0193838283FE0111C04081F0
:1008700051810281138148175907E0F04817590741
:1008800099F4109761F012960C93129713961C939B
:100890003296CF01DF91CF911F910F910895009370
:1008A000230110932401F4CF2115310551F0421793
:1008B000530738F0A901DB019A01BD01DF01F801FE
:1008C000C1CFEF01F9CF9093240180932301CDCFC5
:1008D000FE01E20FF31F8193919322503109398376
:1008E0002883D7CF2091250130912601232B41F475
:1008F00020910201309103013093260120932501BC
:1009000020910001309101012115310541F42DB7ED
:100910003EB74091040150910501241B350BE09135
:100920002501F0912601E217F307A0F42E1B3F0BDF
:100930002817390778F0AC014E5F5F4F2417350751
:1009400048F04E0F5F1F509326014093250181937D
:1009500091939FCFF0E0E0E09CCFCF93DF9300979F
:10096000E9F0FC01329713821282A0912301B09129
:100970002401ED0130E020E01097A1F420813181C5
:10098000820F931F209125013091260128173907E6
:1009900009F061C0F0932601E0932501DF91CF912A
:1009A0000895EA01CE17DF07E8F54A815B819E01D1
:1009B00041155105B1F7E901FB83EA83499159914A
:1009C000C40FD51FEC17FD0761F480819181029659
:1009D000840F951FE90199838883828193819B838A
:1009E0008A83F0E0E0E012968D919C911397009736
:1009F000B9F52D913C911197CD010296820F931F6D
:100A000020912501309126012817390739F63097B2
:100A100051F51092240110922301B0932601A09366
:100A20002501BCCFD383C28340815181840F951FA0
:100A3000C817D90761F44E5F5F4F88819981480FCD
:100A4000591F518340838A819B819383828321151F
:100A5000310509F0B0CFF0932401E09323019ECF3C
:100A6000FD01DC01C0CF13821282D7CFF894FFCFF3
:060A700000002701200038
:00000001FF
