:100000000C9435000C945D000C945D000C945D0024
:100010000C945D000C945D000C945D000C945D00EC
:100020000C945D000C945D000C945D000C945D00DC
:100030000C945D000C945D000C945D000C945D00CC
:100040000C945D000C945D000C94C6000C945D0053
:100050000C945D000C945D000C945D000C945D00AC
:100060000C945D000C945D00F00011241FBECFEFD6
:10007000D8E0DEBFCDBF11E0A0E0B1E0EAE1F2E000
:1000800002C005900D92A030B107D9F721E0A0E0A1
:10009000B1E001C01D92A631B207E1F710E0C5E35F
:1000A000D0E004C02197FE010E940501C433D107AE
:1000B000C9F70E945F000C940B010C940000809122
:1000C0007C008F73806480937C0080917A008768C5
:1000D00080937A0080E090E09C01AC01BC01FC01BF
:1000E00003C0A170A030B9F0DC011197F1F72F5FC8
:1000F0003F4F4F4F5F4F6F4F7F4FEF4FFF4FA1E08D
:10010000203431054807590768077907E807F907D8
:1001100041F7A12DE6CF9093130180931201209116
:100120007C00207F256020937C0020917A00206451
:1001300020937A0020917900322F22274091780075
:100140005527422B532B50931301409312019C01CE
:10015000AC01BC01FC0103C0A170A03001F7DC01BF
:100160001197F1F72F5F3F4F4F4F5F4F6F4F7F4F0B
:10017000EF4FFF4FA1E020343105480759076807CA
:100180007907E807F90741F3A12DE6CF0F920FB6E3
:100190000F921F9211242F933F934F935F936F936E
:1001A0007F938F939F93AF93BF93EF93FF93E091D0
:1001B0001401F0911501E030F10509F00995FF9166
:1001C000EF91BF91AF919F918F917F916F915F91CF
:1001D0004F913F912F911F900F900FBE0F90189548
:1001E000E0E0F1E010821182128213821482158203
:1001F000168217821086118612861386148615863B
:100200001686178681E0808B0895EE0FFF1F0590FC
:0A021000F491E02D0994F894FFCF5B
:00000001FF
